{
  "address": "0xd7e3fffe5b1ca92206a42cd92e3a4dc6c84a037d",
  "abi": [
    {
      "inputs": [
        {
          "internalType": "string",
          "name": "_question",
          "type": "string"
        }
      ],
      "name": "createProposal",
      "outputs": [],
      "stateMutability": "nonpayable",
      "type": "function"
    },
    {
      "inputs": [
        {
          "internalType": "uint256",
          "name": "_proposalIndex",
          "type": "uint256"
        }
      ],
      "name": "getProposalResult",
      "outputs": [
        {
          "internalType": "string",
          "name": "",
          "type": "string"
        },
        {
          "internalType": "uint256",
          "name": "",
          "type": "uint256"
        },
        {
          "internalType": "uint256",
          "name": "",
          "type": "uint256"
        }
      ],
      "stateMutability": "view",
      "type": "function"
    },
    {
      "inputs": [
        {
          "internalType": "uint256",
          "name": "",
          "type": "uint256"
        },
        {
          "internalType": "address",
          "name": "",
          "type": "address"
        }
      ],
      "name": "hasVoted",
      "outputs": [
        {
          "internalType": "bool",
          "name": "",
          "type": "bool"
        }
      ],
      "stateMutability": "view",
      "type": "function"
    },
    {
      "inputs": [
        {
          "internalType": "uint256",
          "name": "",
          "type": "uint256"
        }
      ],
      "name": "proposals",
      "outputs": [
        {
          "internalType": "string",
          "name": "question",
          "type": "string"
        },
        {
          "internalType": "uint256",
          "name": "yesVotes",
          "type": "uint256"
        },
        {
          "internalType": "uint256",
          "name": "noVotes",
          "type": "uint256"
        }
      ],
      "stateMutability": "view",
      "type": "function"
    },
    {
      "inputs": [
        {
          "internalType": "uint256",
          "name": "_proposalIndex",
          "type": "uint256"
        },
        {
          "internalType": "bool",
          "name": "_voteYes",
          "type": "bool"
        }
      ],
      "name": "vote",
      "outputs": [],
      "stateMutability": "nonpayable",
      "type": "function"
    }
  ],
  "transactionHash": "0xccc1378584eaa15e7b3a7d0582524ead1dc9c25503577d2c875df04a8e8f8931",
  "args": [],
  "numDeployments": 1,
  "solcInputHash": "bfbe11a48359ab9274d136ecf7e6f80c",
  "bytecode": "0x608060405234801561001057600080fd5b50610d53806100206000396000f3fe608060405234801561001057600080fd5b50600436106100575760003560e01c8063013cf08b1461005c578063438596321461008e57806349c2a1a6146100be578063c9d27afe146100da578063f91f88f7146100f6575b600080fd5b61007660048036038101906100719190610579565b610128565b60405161008593929190610645565b60405180910390f35b6100a860048036038101906100a391906106e1565b6101ea565b6040516100b5919061073c565b60405180910390f35b6100d860048036038101906100d3919061088c565b610219565b005b6100f460048036038101906100ef9190610901565b610290565b005b610110600480360381019061010b9190610579565b610420565b60405161011f93929190610645565b60405180910390f35b6000818154811061013857600080fd5b906000526020600020906003020160009150905080600001805461015b90610970565b80601f016020809104026020016040519081016040528092919081815260200182805461018790610970565b80156101d45780601f106101a9576101008083540402835291602001916101d4565b820191906000526020600020905b8154815290600101906020018083116101b757829003601f168201915b5050505050908060010154908060020154905083565b60016020528160005260406000206020528060005260406000206000915091509054906101000a900460ff1681565b60006040518060600160405280838152602001600081526020016000815250908060018154018082558091505060019003906000526020600020906003020160009091909190915060008201518160000190816102769190610b4d565b506020820151816001015560408201518160020155505050565b6001600083815260200190815260200160002060003373ffffffffffffffffffffffffffffffffffffffff1673ffffffffffffffffffffffffffffffffffffffff16815260200190815260200160002060009054906101000a900460ff161561032e576040517f08c379a000000000000000000000000000000000000000000000000000000000815260040161032590610c6b565b60405180910390fd5b80156103765760016000838154811061034a57610349610c8b565b5b9060005260206000209060030201600101600082825461036a9190610ce9565b925050819055506103b4565b60016000838154811061038c5761038b610c8b565b5b906000526020600020906003020160020160008282546103ac9190610ce9565b925050819055505b600180600084815260200190815260200160002060003373ffffffffffffffffffffffffffffffffffffffff1673ffffffffffffffffffffffffffffffffffffffff16815260200190815260200160002060006101000a81548160ff0219169083151502179055505050565b60606000806000848154811061043957610438610c8b565b5b90600052602060002090600302016000016000858154811061045e5761045d610c8b565b5b9060005260206000209060030201600101546000868154811061048457610483610c8b565b5b9060005260206000209060030201600201548280546104a290610970565b80601f01602080910402602001604051908101604052809291908181526020018280546104ce90610970565b801561051b5780601f106104f05761010080835404028352916020019161051b565b820191906000526020600020905b8154815290600101906020018083116104fe57829003601f168201915b505050505092509250925092509193909250565b6000604051905090565b600080fd5b600080fd5b6000819050919050565b61055681610543565b811461056157600080fd5b50565b6000813590506105738161054d565b92915050565b60006020828403121561058f5761058e610539565b5b600061059d84828501610564565b91505092915050565b600081519050919050565b600082825260208201905092915050565b60005b838110156105e05780820151818401526020810190506105c5565b60008484015250505050565b6000601f19601f8301169050919050565b6000610608826105a6565b61061281856105b1565b93506106228185602086016105c2565b61062b816105ec565b840191505092915050565b61063f81610543565b82525050565b6000606082019050818103600083015261065f81866105fd565b905061066e6020830185610636565b61067b6040830184610636565b949350505050565b600073ffffffffffffffffffffffffffffffffffffffff82169050919050565b60006106ae82610683565b9050919050565b6106be816106a3565b81146106c957600080fd5b50565b6000813590506106db816106b5565b92915050565b600080604083850312156106f8576106f7610539565b5b600061070685828601610564565b9250506020610717858286016106cc565b9150509250929050565b60008115159050919050565b61073681610721565b82525050565b6000602082019050610751600083018461072d565b92915050565b600080fd5b600080fd5b7f4e487b7100000000000000000000000000000000000000000000000000000000600052604160045260246000fd5b610799826105ec565b810181811067ffffffffffffffff821117156107b8576107b7610761565b5b80604052505050565b60006107cb61052f565b90506107d78282610790565b919050565b600067ffffffffffffffff8211156107f7576107f6610761565b5b610800826105ec565b9050602081019050919050565b82818337600083830152505050565b600061082f61082a846107dc565b6107c1565b90508281526020810184848401111561084b5761084a61075c565b5b61085684828561080d565b509392505050565b600082601f83011261087357610872610757565b5b813561088384826020860161081c565b91505092915050565b6000602082840312156108a2576108a1610539565b5b600082013567ffffffffffffffff8111156108c0576108bf61053e565b5b6108cc8482850161085e565b91505092915050565b6108de81610721565b81146108e957600080fd5b50565b6000813590506108fb816108d5565b92915050565b6000806040838503121561091857610917610539565b5b600061092685828601610564565b9250506020610937858286016108ec565b9150509250929050565b7f4e487b7100000000000000000000000000000000000000000000000000000000600052602260045260246000fd5b6000600282049050600182168061098857607f821691505b60208210810361099b5761099a610941565b5b50919050565b60008190508160005260206000209050919050565b60006020601f8301049050919050565b600082821b905092915050565b600060088302610a037fffffffffffffffffffffffffffffffffffffffffffffffffffffffffffffffff826109c6565b610a0d86836109c6565b95508019841693508086168417925050509392505050565b6000819050919050565b6000610a4a610a45610a4084610543565b610a25565b610543565b9050919050565b6000819050919050565b610a6483610a2f565b610a78610a7082610a51565b8484546109d3565b825550505050565b600090565b610a8d610a80565b610a98818484610a5b565b505050565b5b81811015610abc57610ab1600082610a85565b600181019050610a9e565b5050565b601f821115610b0157610ad2816109a1565b610adb846109b6565b81016020851015610aea578190505b610afe610af6856109b6565b830182610a9d565b50505b505050565b600082821c905092915050565b6000610b2460001984600802610b06565b1980831691505092915050565b6000610b3d8383610b13565b9150826002028217905092915050565b610b56826105a6565b67ffffffffffffffff811115610b6f57610b6e610761565b5b610b798254610970565b610b84828285610ac0565b600060209050601f831160018114610bb75760008415610ba5578287015190505b610baf8582610b31565b865550610c17565b601f198416610bc5866109a1565b60005b82811015610bed57848901518255600182019150602085019450602081019050610bc8565b86831015610c0a5784890151610c06601f891682610b13565b8355505b6001600288020188555050505b505050505050565b7f596f75206861766520616c726561647920766f74656421000000000000000000600082015250565b6000610c556017836105b1565b9150610c6082610c1f565b602082019050919050565b60006020820190508181036000830152610c8481610c48565b9050919050565b7f4e487b7100000000000000000000000000000000000000000000000000000000600052603260045260246000fd5b7f4e487b7100000000000000000000000000000000000000000000000000000000600052601160045260246000fd5b6000610cf482610543565b9150610cff83610543565b9250828201905080821115610d1757610d16610cba565b5b9291505056fea2646970667358221220e5014e488ca92100684e6e7a9c44700168679dc5effee5eae99df516b149274564736f6c63430008130033",
  "devdoc": {
    "kind": "dev",
    "methods": {},
    "version": 1
  },
  "userdoc": {
    "kind": "user",
    "methods": {},
    "version": 1
  },
  "storageLayout": {
    "storage": [
      {
        "astId": 12,
        "contract": "contracts/YesNoVoting.sol:YesNoVoting",
        "label": "proposals",
        "offset": 0,
        "slot": "0",
        "type": "t_array(t_struct(Proposal)8_storage)dyn_storage"
      },
      {
        "astId": 18,
        "contract": "contracts/YesNoVoting.sol:YesNoVoting",
        "label": "hasVoted",
        "offset": 0,
        "slot": "1",
        "type": "t_mapping(t_uint256,t_mapping(t_address,t_bool))"
      }
    ],
    "types": {
      "t_address": {
        "encoding": "inplace",
        "label": "address",
        "numberOfBytes": "20"
      },
      "t_array(t_struct(Proposal)8_storage)dyn_storage": {
        "base": "t_struct(Proposal)8_storage",
        "encoding": "dynamic_array",
        "label": "struct YesNoVoting.Proposal[]",
        "numberOfBytes": "32"
      },
      "t_bool": {
        "encoding": "inplace",
        "label": "bool",
        "numberOfBytes": "1"
      },
      "t_mapping(t_address,t_bool)": {
        "encoding": "mapping",
        "key": "t_address",
        "label": "mapping(address => bool)",
        "numberOfBytes": "32",
        "value": "t_bool"
      },
      "t_mapping(t_uint256,t_mapping(t_address,t_bool))": {
        "encoding": "mapping",
        "key": "t_uint256",
        "label": "mapping(uint256 => mapping(address => bool))",
        "numberOfBytes": "32",
        "value": "t_mapping(t_address,t_bool)"
      },
      "t_string_storage": {
        "encoding": "bytes",
        "label": "string",
        "numberOfBytes": "32"
      },
      "t_struct(Proposal)8_storage": {
        "encoding": "inplace",
        "label": "struct YesNoVoting.Proposal",
        "members": [
          {
            "astId": 3,
            "contract": "contracts/YesNoVoting.sol:YesNoVoting",
            "label": "question",
            "offset": 0,
            "slot": "0",
            "type": "t_string_storage"
          },
          {
            "astId": 5,
            "contract": "contracts/YesNoVoting.sol:YesNoVoting",
            "label": "yesVotes",
            "offset": 0,
            "slot": "1",
            "type": "t_uint256"
          },
          {
            "astId": 7,
            "contract": "contracts/YesNoVoting.sol:YesNoVoting",
            "label": "noVotes",
            "offset": 0,
            "slot": "2",
            "type": "t_uint256"
          }
        ],
        "numberOfBytes": "96"
      },
      "t_uint256": {
        "encoding": "inplace",
        "label": "uint256",
        "numberOfBytes": "32"
      }
    }
  }
}